{
  "transactions": [
    {
      "hash": null,
      "transactionType": "CALL",
      "contractName": "HelperConfig",
      "contractAddress": "0x5aadfb43ef8daf45dd80f4676345b7676f1d70e3",
      "function": "getConfig()",
      "arguments": [],
      "transaction": {
        "from": "0x42bb5957f541e150329cf8ff7a52002f746419c4",
        "to": "0x5aadfb43ef8daf45dd80f4676345b7676f1d70e3",
        "gas": "0x6c98",
        "value": "0x0",
        "input": "0xc3f909d4",
        "nonce": "0x3",
        "chainId": "0xa4b1"
      },
      "additionalContracts": [],
      "isFixedGasLimit": false
    },
    {
      "hash": null,
      "transactionType": "CALL",
      "contractName": null,
      "contractAddress": "0x0000000071727de22e5e9d8baf0edac6f37da032",
      "function": "handleOps((address,uint256,bytes,bytes,bytes32,uint256,bytes32,bytes,bytes)[],address)",
      "arguments": [
        "[(0x6bF86f3717c0D04D6AC3B3c01f20167179706a3b, 0, 0x, 0xb61d27f600000000000000000000000042bb5957f541e150329cf8ff7a52002f746419c4000000000000000000000000000000000000000000000000000000000000000000000000000000000000000000000000000000000000000000000000000000600000000000000000000000000000000000000000000000000000000000000044a9059cbb00000000000000000000000002e2eedf19a3d98d4677c84ac5bd1bdff51b700700000000000000000000000000000000000000000000000000038d7ea4c6800000000000000000000000000000000000000000000000000000000000, 0x0000000000000000000000000100000000000000000000000000000001000000, 16777216, 0x0000000000000000000000000000010000000000000000000000000000000100, 0x, 0x8f032d29935c9c02b40d5cdc2a8de0eb68c434906148b446cab18e6bb081b14a0e0c0168cf8d1760763cf7d365801175ccebbc500a5b6ecff9f65ce11b0a4c1f1c)]",
        "0x42BB5957F541e150329cF8ff7A52002f746419C4"
      ],
      "transaction": {
        "from": "0x42bb5957f541e150329cf8ff7a52002f746419c4",
        "to": "0x0000000071727de22e5e9d8baf0edac6f37da032",
        "gas": "0x15c70ba",
        "value": "0x0",
        "input": "0x765e827f000000000000000000000000000000000000000000000000000000000000004000000000000000000000000042bb5957f541e150329cf8ff7a52002f746419c4000000000000000000000000000000000000000000000000000000000000000100000000000000000000000000000000000000000000000000000000000000200000000000000000000000006bf86f3717c0d04d6ac3b3c01f20167179706a3b00000000000000000000000000000000000000000000000000000000000000000000000000000000000000000000000000000000000000000000000000000120000000000000000000000000000000000000000000000000000000000000014000000000000000000000000001000000000000000000000000000000010000000000000000000000000000000000000000000000000000000000000001000000000000000000000000000000000001000000000000000000000000000000010000000000000000000000000000000000000000000000000000000000000002600000000000000000000000000000000000000000000000000000000000000280000000000000000000000000000000000000000000000000000000000000000000000000000000000000000000000000000000000000000000000000000000e4b61d27f600000000000000000000000042bb5957f541e150329cf8ff7a52002f746419c4000000000000000000000000000000000000000000000000000000000000000000000000000000000000000000000000000000000000000000000000000000600000000000000000000000000000000000000000000000000000000000000044a9059cbb00000000000000000000000002e2eedf19a3d98d4677c84ac5bd1bdff51b700700000000000000000000000000000000000000000000000000038d7ea4c680000000000000000000000000000000000000000000000000000000000000000000000000000000000000000000000000000000000000000000000000000000000000000000000000000000000000000000000000000000000000000000000000000000000000000000000000000000000000000000000000418f032d29935c9c02b40d5cdc2a8de0eb68c434906148b446cab18e6bb081b14a0e0c0168cf8d1760763cf7d365801175ccebbc500a5b6ecff9f65ce11b0a4c1f1c00000000000000000000000000000000000000000000000000000000000000",
        "nonce": "0x4",
        "chainId": "0xa4b1"
      },
      "additionalContracts": [],
      "isFixedGasLimit": false
    }
  ],
  "receipts": [],
  "libraries": [],
  "pending": [],
  "returns": {},
  "timestamp": 1771971921175,
  "chain": 42161,
  "commit": "41f1c90"
}