{
  "transactions": [
    {
      "hash": "0x00ee3542c01e0fc3396fe9b7e4d10c67bbcf5c38c3a479be52dd60925ed7afc8",
      "transactionType": "CALL",
      "contractName": "HelperConfig",
      "contractAddress": "0x5aadfb43ef8daf45dd80f4676345b7676f1d70e3",
      "function": "getConfig()",
      "arguments": [],
      "transaction": {
        "from": "0x42bb5957f541e150329cf8ff7a52002f746419c4",
        "to": "0x5aadfb43ef8daf45dd80f4676345b7676f1d70e3",
        "gas": "0x6c1f",
        "value": "0x0",
        "input": "0xc3f909d4",
        "nonce": "0x6",
        "chainId": "0xa4b1"
      },
      "additionalContracts": [],
      "isFixedGasLimit": false
    },
    {
      "hash": "0x31a529983373262022af7c9f8dba7929fe75391a645af925012e5c32ac140d47",
      "transactionType": "CALL",
      "contractName": null,
      "contractAddress": "0x0000000071727de22e5e9d8baf0edac6f37da032",
      "function": "handleOps((address,uint256,bytes,bytes,bytes32,uint256,bytes32,bytes,bytes)[],address)",
      "arguments": [
        "[(0x6bF86f3717c0D04D6AC3B3c01f20167179706a3b, 2, 0x, 0xb61d27f600000000000000000000000042bb5957f541e150329cf8ff7a52002f746419c4000000000000000000000000000000000000000000000000000000000000000000000000000000000000000000000000000000000000000000000000000000600000000000000000000000000000000000000000000000000000000000000044a9059cbb00000000000000000000000002e2eedf19a3d98d4677c84ac5bd1bdff51b700700000000000000000000000000000000000000000000000000038d7ea4c6800000000000000000000000000000000000000000000000000000000000, 0x0000000000000000000000000100000000000000000000000000000001000000, 16777216, 0x0000000000000000000000000000010000000000000000000000000000000100, 0x, 0x2285383f6c7b773077ce49b0b163188a4b25d5c2740f21084cf046fda6c65dd873a364250576b43bda10d52ac219ef5304f4922207cb6ea23eb67e204b94adca1c)]",
        "0x42BB5957F541e150329cF8ff7A52002f746419C4"
      ],
      "transaction": {
        "from": "0x42bb5957f541e150329cf8ff7a52002f746419c4",
        "to": "0x0000000071727de22e5e9d8baf0edac6f37da032",
        "gas": "0x15c6a20",
        "value": "0x0",
        "input": "0x765e827f000000000000000000000000000000000000000000000000000000000000004000000000000000000000000042bb5957f541e150329cf8ff7a52002f746419c4000000000000000000000000000000000000000000000000000000000000000100000000000000000000000000000000000000000000000000000000000000200000000000000000000000006bf86f3717c0d04d6ac3b3c01f20167179706a3b00000000000000000000000000000000000000000000000000000000000000020000000000000000000000000000000000000000000000000000000000000120000000000000000000000000000000000000000000000000000000000000014000000000000000000000000001000000000000000000000000000000010000000000000000000000000000000000000000000000000000000000000001000000000000000000000000000000000001000000000000000000000000000000010000000000000000000000000000000000000000000000000000000000000002600000000000000000000000000000000000000000000000000000000000000280000000000000000000000000000000000000000000000000000000000000000000000000000000000000000000000000000000000000000000000000000000e4b61d27f600000000000000000000000042bb5957f541e150329cf8ff7a52002f746419c4000000000000000000000000000000000000000000000000000000000000000000000000000000000000000000000000000000000000000000000000000000600000000000000000000000000000000000000000000000000000000000000044a9059cbb00000000000000000000000002e2eedf19a3d98d4677c84ac5bd1bdff51b700700000000000000000000000000000000000000000000000000038d7ea4c680000000000000000000000000000000000000000000000000000000000000000000000000000000000000000000000000000000000000000000000000000000000000000000000000000000000000000000000000000000000000000000000000000000000000000000000000000000000000000000000000412285383f6c7b773077ce49b0b163188a4b25d5c2740f21084cf046fda6c65dd873a364250576b43bda10d52ac219ef5304f4922207cb6ea23eb67e204b94adca1c00000000000000000000000000000000000000000000000000000000000000",
        "nonce": "0x7",
        "chainId": "0xa4b1"
      },
      "additionalContracts": [],
      "isFixedGasLimit": false
    }
  ],
  "receipts": [
    {
      "status": "0x1",
      "cumulativeGasUsed": "0x9f1e4",
      "logs": [],
      "logsBloom": "0x00000000000000000000000000000000000000000000000000000000000000000000000000000000000000000000000000000000000000000000000000000000000000000000000000000000000000000000000000000000000000000000000000000000000000000000000000000000000000000000000000000000000000000000000000000000000000000000000000000000000000000000000000000000000000000000000000000000000000000000000000000000000000000000000000000000000000000000000000000000000000000000000000000000000000000000000000000000000000000000000000000000000000000000000000000000",
      "type": "0x2",
      "transactionHash": "0x00ee3542c01e0fc3396fe9b7e4d10c67bbcf5c38c3a479be52dd60925ed7afc8",
      "transactionIndex": "0x6",
      "blockHash": "0xd3b7e1802faa04fb00f414586280312c7402acdbbb811f03647b6474edf07f70",
      "blockNumber": "0x19f7435f",
      "gasUsed": "0x5276",
      "effectiveGasPrice": "0x1312d00",
      "from": "0x42bb5957f541e150329cf8ff7a52002f746419c4",
      "to": "0x5aadfb43ef8daf45dd80f4676345b7676f1d70e3",
      "contractAddress": null,
      "gasUsedForL1": "0x2e",
      "l1BlockNumber": "0x1764cc0",
      "timeboosted": false
    },
    {
      "status": "0x1",
      "cumulativeGasUsed": "0x48643",
      "logs": [
        {
          "address": "0x0000000071727de22e5e9d8baf0edac6f37da032",
          "topics": [
            "0x2da466a7b24304f47e87fa2e1e5a81b9831ce54fec19055ce277ca2f39ba42c4",
            "0x0000000000000000000000006bf86f3717c0d04d6ac3b3c01f20167179706a3b"
          ],
          "data": "0x0000000000000000000000000000000000000000000000000000000300000000",
          "blockHash": "0xd740f799883efedb7227f22fc5c62cb11bb2c2d2a24d970e1aae7a5e89d15388",
          "blockNumber": "0x19f74367",
          "blockTimestamp": "0x699e374f",
          "transactionHash": "0x31a529983373262022af7c9f8dba7929fe75391a645af925012e5c32ac140d47",
          "transactionIndex": "0x4",
          "logIndex": "0x2",
          "removed": false
        },
        {
          "address": "0x0000000071727de22e5e9d8baf0edac6f37da032",
          "topics": [
            "0xbb47ee3e183a558b1a2ff0874b079f3fc5478b7454eacf2bfc5af2ff5878f972"
          ],
          "data": "0x",
          "blockHash": "0xd740f799883efedb7227f22fc5c62cb11bb2c2d2a24d970e1aae7a5e89d15388",
          "blockNumber": "0x19f74367",
          "blockTimestamp": "0x699e374f",
          "transactionHash": "0x31a529983373262022af7c9f8dba7929fe75391a645af925012e5c32ac140d47",
          "transactionIndex": "0x4",
          "logIndex": "0x3",
          "removed": false
        },
        {
          "address": "0x0000000071727de22e5e9d8baf0edac6f37da032",
          "topics": [
            "0x49628fd1471006c1482da88028e9ce4dbb080b815c9b0344d39e5a8e6ec1419f",
            "0xbfbb3505d8d61d540cebbdfab171bd33e238d3717bf5436ea41f35fc5dc7f08f",
            "0x0000000000000000000000006bf86f3717c0d04d6ac3b3c01f20167179706a3b",
            "0x0000000000000000000000000000000000000000000000000000000000000000"
          ],
          "data": "0x00000000000000000000000000000000000000000000000000000000000000020000000000000000000000000000000000000000000000000000000000000001000000000000000000000000000000000000000000000000000000011a26820000000000000000000000000000000000000000000000000000000000011a2682",
          "blockHash": "0xd740f799883efedb7227f22fc5c62cb11bb2c2d2a24d970e1aae7a5e89d15388",
          "blockNumber": "0x19f74367",
          "blockTimestamp": "0x699e374f",
          "transactionHash": "0x31a529983373262022af7c9f8dba7929fe75391a645af925012e5c32ac140d47",
          "transactionIndex": "0x4",
          "logIndex": "0x4",
          "removed": false
        }
      ],
      "logsBloom": "0x00000000000000040000000000000000000000000000000000000000000000000008000000000000000000010000000000000000000000001000020000000000000000000000000000000000000000000040000000000000000000000000200000000000020800000000000000000800000000000000000000000000000200000000000000000000000000000000800000000000000000000000000001000000000000000080000000400000000000000000000000000000000002000000200000000000000000400001000000000000000000000000000000000000000020000040000000000000000000000000000000000000000000000000000000000000",
      "type": "0x2",
      "transactionHash": "0x31a529983373262022af7c9f8dba7929fe75391a645af925012e5c32ac140d47",
      "transactionIndex": "0x4",
      "blockHash": "0xd740f799883efedb7227f22fc5c62cb11bb2c2d2a24d970e1aae7a5e89d15388",
      "blockNumber": "0x19f74367",
      "gasUsed": "0x1410e",
      "effectiveGasPrice": "0x1312d00",
      "from": "0x42bb5957f541e150329cf8ff7a52002f746419c4",
      "to": "0x0000000071727de22e5e9d8baf0edac6f37da032",
      "contractAddress": null,
      "gasUsedForL1": "0xb8",
      "l1BlockNumber": "0x1764cc0",
      "timeboosted": false
    }
  ],
  "libraries": [],
  "pending": [],
  "returns": {},
  "timestamp": 1771976527708,
  "chain": 42161,
  "commit": "41f1c90"
}