{
  "transactions": [
    {
      "hash": "0x01579f9acc1b845947d18c82131170a1a5f5dcb211c1525c0235727bea661d04",
      "transactionType": "CALL",
      "contractName": "HelperConfig",
      "contractAddress": "0x5aadfb43ef8daf45dd80f4676345b7676f1d70e3",
      "function": "getConfig()",
      "arguments": [],
      "transaction": {
        "from": "0x42bb5957f541e150329cf8ff7a52002f746419c4",
        "to": "0x5aadfb43ef8daf45dd80f4676345b7676f1d70e3",
        "gas": "0x6d0e",
        "value": "0x0",
        "input": "0xc3f909d4",
        "nonce": "0x8",
        "chainId": "0xa4b1"
      },
      "additionalContracts": [],
      "isFixedGasLimit": false
    },
    {
      "hash": "0x0ef692e62b1a1914c53d86b4d91b9573f1b693fc4d325e2f45df669951ddb6a4",
      "transactionType": "CALL",
      "contractName": "HelperConfig",
      "contractAddress": "0x5aadfb43ef8daf45dd80f4676345b7676f1d70e3",
      "function": "getConfig()",
      "arguments": [],
      "transaction": {
        "from": "0x42bb5957f541e150329cf8ff7a52002f746419c4",
        "to": "0x5aadfb43ef8daf45dd80f4676345b7676f1d70e3",
        "gas": "0x6d0e",
        "value": "0x0",
        "input": "0xc3f909d4",
        "nonce": "0x9",
        "chainId": "0xa4b1"
      },
      "additionalContracts": [],
      "isFixedGasLimit": false
    },
    {
      "hash": "0x0e48c62f1cd721c276c21a24cd410fa6c26bf6af6d62f7ca4937b514041d7047",
      "transactionType": "CALL",
      "contractName": null,
      "contractAddress": "0x0000000071727de22e5e9d8baf0edac6f37da032",
      "function": "handleOps((address,uint256,bytes,bytes,bytes32,uint256,bytes32,bytes,bytes)[],address)",
      "arguments": [
        "[(0x6bF86f3717c0D04D6AC3B3c01f20167179706a3b, 3, 0x, 0xb61d27f6000000000000000000000000af88d065e77c8cc2239327c5edb3a432268e5831000000000000000000000000000000000000000000000000000000000000000000000000000000000000000000000000000000000000000000000000000000600000000000000000000000000000000000000000000000000000000000000044a9059cbb00000000000000000000000002e2eedf19a3d98d4677c84ac5bd1bdff51b70070000000000000000000000000000000000000000000000000000000000000bb800000000000000000000000000000000000000000000000000000000, 0x0000000000000000000000000100000000000000000000000000000001000000, 16777216, 0x0000000000000000000000000000010000000000000000000000000000000100, 0x, 0x59129e9d397e21fd427d365c8e7ce1b9497e6f5454fcbe9d257a053726112e283fd64121d2f1fe6ea00d85ddfe8ca38c51b1646eb83620d569837cc7b0c4da581b)]",
        "0x42BB5957F541e150329cF8ff7A52002f746419C4"
      ],
      "transaction": {
        "from": "0x42bb5957f541e150329cf8ff7a52002f746419c4",
        "to": "0x0000000071727de22e5e9d8baf0edac6f37da032",
        "gas": "0x15d2e12",
        "value": "0x0",
        "input": "0x765e827f000000000000000000000000000000000000000000000000000000000000004000000000000000000000000042bb5957f541e150329cf8ff7a52002f746419c4000000000000000000000000000000000000000000000000000000000000000100000000000000000000000000000000000000000000000000000000000000200000000000000000000000006bf86f3717c0d04d6ac3b3c01f20167179706a3b00000000000000000000000000000000000000000000000000000000000000030000000000000000000000000000000000000000000000000000000000000120000000000000000000000000000000000000000000000000000000000000014000000000000000000000000001000000000000000000000000000000010000000000000000000000000000000000000000000000000000000000000001000000000000000000000000000000000001000000000000000000000000000000010000000000000000000000000000000000000000000000000000000000000002600000000000000000000000000000000000000000000000000000000000000280000000000000000000000000000000000000000000000000000000000000000000000000000000000000000000000000000000000000000000000000000000e4b61d27f6000000000000000000000000af88d065e77c8cc2239327c5edb3a432268e5831000000000000000000000000000000000000000000000000000000000000000000000000000000000000000000000000000000000000000000000000000000600000000000000000000000000000000000000000000000000000000000000044a9059cbb00000000000000000000000002e2eedf19a3d98d4677c84ac5bd1bdff51b70070000000000000000000000000000000000000000000000000000000000000bb800000000000000000000000000000000000000000000000000000000000000000000000000000000000000000000000000000000000000000000000000000000000000000000000000000000000000000000000000000000000000000000000000000000000000000000000000000000000000000000004159129e9d397e21fd427d365c8e7ce1b9497e6f5454fcbe9d257a053726112e283fd64121d2f1fe6ea00d85ddfe8ca38c51b1646eb83620d569837cc7b0c4da581b00000000000000000000000000000000000000000000000000000000000000",
        "nonce": "0xa",
        "chainId": "0xa4b1"
      },
      "additionalContracts": [],
      "isFixedGasLimit": false
    }
  ],
  "receipts": [
    {
      "status": "0x1",
      "cumulativeGasUsed": "0x464e7",
      "logs": [],
      "logsBloom": "0x00000000000000000000000000000000000000000000000000000000000000000000000000000000000000000000000000000000000000000000000000000000000000000000000000000000000000000000000000000000000000000000000000000000000000000000000000000000000000000000000000000000000000000000000000000000000000000000000000000000000000000000000000000000000000000000000000000000000000000000000000000000000000000000000000000000000000000000000000000000000000000000000000000000000000000000000000000000000000000000000000000000000000000000000000000000",
      "type": "0x2",
      "transactionHash": "0x01579f9acc1b845947d18c82131170a1a5f5dcb211c1525c0235727bea661d04",
      "transactionIndex": "0x4",
      "blockHash": "0x8ca03716854f5bcd8c52aa7ca6c71a3bedbd8ac1c1d7525eba154984d6f26206",
      "blockNumber": "0x19fbaa4a",
      "gasUsed": "0x5300",
      "effectiveGasPrice": "0x1312d00",
      "from": "0x42bb5957f541e150329cf8ff7a52002f746419c4",
      "to": "0x5aadfb43ef8daf45dd80f4676345b7676f1d70e3",
      "contractAddress": null,
      "gasUsedForL1": "0xb8",
      "l1BlockNumber": "0x176640e",
      "timeboosted": false
    },
    {
      "status": "0x1",
      "cumulativeGasUsed": "0x17a92",
      "logs": [],
      "logsBloom": "0x00000000000000000000000000000000000000000000000000000000000000000000000000000000000000000000000000000000000000000000000000000000000000000000000000000000000000000000000000000000000000000000000000000000000000000000000000000000000000000000000000000000000000000000000000000000000000000000000000000000000000000000000000000000000000000000000000000000000000000000000000000000000000000000000000000000000000000000000000000000000000000000000000000000000000000000000000000000000000000000000000000000000000000000000000000000",
      "type": "0x2",
      "transactionHash": "0x0ef692e62b1a1914c53d86b4d91b9573f1b693fc4d325e2f45df669951ddb6a4",
      "transactionIndex": "0x2",
      "blockHash": "0x173f5b5304af6f684d83b25cd3fae414ecd54ad863ee0b622e7cc9759ef9f196",
      "blockNumber": "0x19fbaa50",
      "gasUsed": "0x5300",
      "effectiveGasPrice": "0x1322ed0",
      "from": "0x42bb5957f541e150329cf8ff7a52002f746419c4",
      "to": "0x5aadfb43ef8daf45dd80f4676345b7676f1d70e3",
      "contractAddress": null,
      "gasUsedForL1": "0xb8",
      "l1BlockNumber": "0x176640e",
      "timeboosted": false
    },
    {
      "status": "0x1",
      "cumulativeGasUsed": "0x4c5fe",
      "logs": [
        {
          "address": "0x0000000071727de22e5e9d8baf0edac6f37da032",
          "topics": [
            "0x2da466a7b24304f47e87fa2e1e5a81b9831ce54fec19055ce277ca2f39ba42c4",
            "0x0000000000000000000000006bf86f3717c0d04d6ac3b3c01f20167179706a3b"
          ],
          "data": "0x0000000000000000000000000000000000000000000000000000000300000000",
          "blockHash": "0xc7755f33a8bfadc7b8e414d38242c07ba6b0c28d65864dd853167ac8f930dfaa",
          "blockNumber": "0x19fbaa56",
          "blockTimestamp": "0x699f5053",
          "transactionHash": "0x0e48c62f1cd721c276c21a24cd410fa6c26bf6af6d62f7ca4937b514041d7047",
          "transactionIndex": "0x3",
          "logIndex": "0x3",
          "removed": false
        },
        {
          "address": "0x0000000071727de22e5e9d8baf0edac6f37da032",
          "topics": [
            "0xbb47ee3e183a558b1a2ff0874b079f3fc5478b7454eacf2bfc5af2ff5878f972"
          ],
          "data": "0x",
          "blockHash": "0xc7755f33a8bfadc7b8e414d38242c07ba6b0c28d65864dd853167ac8f930dfaa",
          "blockNumber": "0x19fbaa56",
          "blockTimestamp": "0x699f5053",
          "transactionHash": "0x0e48c62f1cd721c276c21a24cd410fa6c26bf6af6d62f7ca4937b514041d7047",
          "transactionIndex": "0x3",
          "logIndex": "0x4",
          "removed": false
        },
        {
          "address": "0xaf88d065e77c8cc2239327c5edb3a432268e5831",
          "topics": [
            "0xddf252ad1be2c89b69c2b068fc378daa952ba7f163c4a11628f55a4df523b3ef",
            "0x0000000000000000000000006bf86f3717c0d04d6ac3b3c01f20167179706a3b",
            "0x00000000000000000000000002e2eedf19a3d98d4677c84ac5bd1bdff51b7007"
          ],
          "data": "0x0000000000000000000000000000000000000000000000000000000000000bb8",
          "blockHash": "0xc7755f33a8bfadc7b8e414d38242c07ba6b0c28d65864dd853167ac8f930dfaa",
          "blockNumber": "0x19fbaa56",
          "blockTimestamp": "0x699f5053",
          "transactionHash": "0x0e48c62f1cd721c276c21a24cd410fa6c26bf6af6d62f7ca4937b514041d7047",
          "transactionIndex": "0x3",
          "logIndex": "0x5",
          "removed": false
        },
        {
          "address": "0x0000000071727de22e5e9d8baf0edac6f37da032",
          "topics": [
            "0x49628fd1471006c1482da88028e9ce4dbb080b815c9b0344d39e5a8e6ec1419f",
            "0xbd4662f64a5070e3f0964f4da6d77bb1c24f3f2ba1acd068f35bd62895bb2e42",
            "0x0000000000000000000000006bf86f3717c0d04d6ac3b3c01f20167179706a3b",
            "0x0000000000000000000000000000000000000000000000000000000000000000"
          ],
          "data": "0x00000000000000000000000000000000000000000000000000000000000000030000000000000000000000000000000000000000000000000000000000000001000000000000000000000000000000000000000000000000000000011a82070000000000000000000000000000000000000000000000000000000000011a8207",
          "blockHash": "0xc7755f33a8bfadc7b8e414d38242c07ba6b0c28d65864dd853167ac8f930dfaa",
          "blockNumber": "0x19fbaa56",
          "blockTimestamp": "0x699f5053",
          "transactionHash": "0x0e48c62f1cd721c276c21a24cd410fa6c26bf6af6d62f7ca4937b514041d7047",
          "transactionIndex": "0x3",
          "logIndex": "0x6",
          "removed": false
        }
      ],
      "logsBloom": "0x00000000000000040800000000000000000000000000000000000000000000000008000000000000000000010000000000000001000000000000020000000000000000000000000000000008000000000040000000000000000000000000200000000000020800000000000000000800000000000000000000000090000200000000000000000000000000000000800000000000000000000000000000000000000000000080000000400000000000000000000000000000000102000000000010002002000000400001000000000000000000000000000000000000000020000040000000000000000000000000200000000000000000000000001800000000",
      "type": "0x2",
      "transactionHash": "0x0e48c62f1cd721c276c21a24cd410fa6c26bf6af6d62f7ca4937b514041d7047",
      "transactionIndex": "0x3",
      "blockHash": "0xc7755f33a8bfadc7b8e414d38242c07ba6b0c28d65864dd853167ac8f930dfaa",
      "blockNumber": "0x19fbaa56",
      "gasUsed": "0x1961f",
      "effectiveGasPrice": "0x1312d00",
      "from": "0x42bb5957f541e150329cf8ff7a52002f746419c4",
      "to": "0x0000000071727de22e5e9d8baf0edac6f37da032",
      "contractAddress": null,
      "gasUsedForL1": "0x2fd",
      "l1BlockNumber": "0x176640e",
      "timeboosted": false
    }
  ],
  "libraries": [],
  "pending": [],
  "returns": {},
  "timestamp": 1772048467415,
  "chain": 42161,
  "commit": "4111f68"
}