{
  "transactions": [
    {
      "hash": "0xbac7c2371bc98a8080ef0c96ff4819a49c1095adfe1f2e5df121c9d18906c178",
      "transactionType": "CALL",
      "contractName": null,
      "contractAddress": "0x0000000071727de22e5e9d8baf0edac6f37da032",
      "function": "handleOps((address,uint256,bytes,bytes,bytes32,uint256,bytes32,bytes,bytes)[],address)",
      "arguments": [
        "[(0x6bF86f3717c0D04D6AC3B3c01f20167179706a3b, 1, 0x, 0xb61d27f600000000000000000000000002e2eedf19a3d98d4677c84ac5bd1bdff51b7007000000000000000000000000000000000000000000000000000246139ca8000000000000000000000000000000000000000000000000000000000000000000600000000000000000000000000000000000000000000000000000000000000000, 0x0000000000000000000000000100000000000000000000000000000001000000, 16777216, 0x0000000000000000000000000000010000000000000000000000000000000100, 0x, 0xe49baf5ee76dfb4089afd86f4d42d1afe88a15b93f4d69c03f2d97e20d009b426cc90acde27d5a9859ca382fb1b051b0477cb5ba1a56e1fd520a2c764f8232eb1c)]",
        "0x42BB5957F541e150329cF8ff7A52002f746419C4"
      ],
      "transaction": {
        "from": "0x42bb5957f541e150329cf8ff7a52002f746419c4",
        "to": "0x0000000071727de22e5e9d8baf0edac6f37da032",
        "gas": "0x15b10b4",
        "value": "0x0",
        "input": "0x765e827f000000000000000000000000000000000000000000000000000000000000004000000000000000000000000042bb5957f541e150329cf8ff7a52002f746419c4000000000000000000000000000000000000000000000000000000000000000100000000000000000000000000000000000000000000000000000000000000200000000000000000000000006bf86f3717c0d04d6ac3b3c01f20167179706a3b0000000000000000000000000000000000000000000000000000000000000001000000000000000000000000000000000000000000000000000000000000012000000000000000000000000000000000000000000000000000000000000001400000000000000000000000000100000000000000000000000000000001000000000000000000000000000000000000000000000000000000000000000100000000000000000000000000000000000100000000000000000000000000000001000000000000000000000000000000000000000000000000000000000000000200000000000000000000000000000000000000000000000000000000000000022000000000000000000000000000000000000000000000000000000000000000000000000000000000000000000000000000000000000000000000000000000084b61d27f600000000000000000000000002e2eedf19a3d98d4677c84ac5bd1bdff51b7007000000000000000000000000000000000000000000000000000246139ca80000000000000000000000000000000000000000000000000000000000000000006000000000000000000000000000000000000000000000000000000000000000000000000000000000000000000000000000000000000000000000000000000000000000000000000000000000000000000000000000000000000000000000000000000000000000000000000000000000000000000000000000000041e49baf5ee76dfb4089afd86f4d42d1afe88a15b93f4d69c03f2d97e20d009b426cc90acde27d5a9859ca382fb1b051b0477cb5ba1a56e1fd520a2c764f8232eb1c00000000000000000000000000000000000000000000000000000000000000",
        "nonce": "0x5",
        "chainId": "0xa4b1"
      },
      "additionalContracts": [],
      "isFixedGasLimit": false
    }
  ],
  "receipts": [
    {
      "status": "0x1",
      "cumulativeGasUsed": "0x5863f",
      "logs": [
        {
          "address": "0x0000000071727de22e5e9d8baf0edac6f37da032",
          "topics": [
            "0x2da466a7b24304f47e87fa2e1e5a81b9831ce54fec19055ce277ca2f39ba42c4",
            "0x0000000000000000000000006bf86f3717c0d04d6ac3b3c01f20167179706a3b"
          ],
          "data": "0x0000000000000000000000000000000000000000000000000000000300000000",
          "blockHash": "0x9954420dd0364d4143b8f4aede51c347137350301cad58f2a352f1ddc4fad5fc",
          "blockNumber": "0x19f73d03",
          "blockTimestamp": "0x699e35b6",
          "transactionHash": "0xbac7c2371bc98a8080ef0c96ff4819a49c1095adfe1f2e5df121c9d18906c178",
          "transactionIndex": "0x6",
          "logIndex": "0x1",
          "removed": false
        },
        {
          "address": "0x0000000071727de22e5e9d8baf0edac6f37da032",
          "topics": [
            "0xbb47ee3e183a558b1a2ff0874b079f3fc5478b7454eacf2bfc5af2ff5878f972"
          ],
          "data": "0x",
          "blockHash": "0x9954420dd0364d4143b8f4aede51c347137350301cad58f2a352f1ddc4fad5fc",
          "blockNumber": "0x19f73d03",
          "blockTimestamp": "0x699e35b6",
          "transactionHash": "0xbac7c2371bc98a8080ef0c96ff4819a49c1095adfe1f2e5df121c9d18906c178",
          "transactionIndex": "0x6",
          "logIndex": "0x2",
          "removed": false
        },
        {
          "address": "0x0000000071727de22e5e9d8baf0edac6f37da032",
          "topics": [
            "0x49628fd1471006c1482da88028e9ce4dbb080b815c9b0344d39e5a8e6ec1419f",
            "0x178160a4f00645a1d181c95de1b65631c38cc5b261b1abf9e404594fab9a3645",
            "0x0000000000000000000000006bf86f3717c0d04d6ac3b3c01f20167179706a3b",
            "0x0000000000000000000000000000000000000000000000000000000000000000"
          ],
          "data": "0x00000000000000000000000000000000000000000000000000000000000000010000000000000000000000000000000000000000000000000000000000000001000000000000000000000000000000000000000000000000000000011a469c0000000000000000000000000000000000000000000000000000000000011a469c",
          "blockHash": "0x9954420dd0364d4143b8f4aede51c347137350301cad58f2a352f1ddc4fad5fc",
          "blockNumber": "0x19f73d03",
          "blockTimestamp": "0x699e35b6",
          "transactionHash": "0xbac7c2371bc98a8080ef0c96ff4819a49c1095adfe1f2e5df121c9d18906c178",
          "transactionIndex": "0x6",
          "logIndex": "0x3",
          "removed": false
        }
      ],
      "logsBloom": "0x00000000000000040000000000000000000000000000000001000000000000000008000000000000000000010000000000000000000000000000020000000000000000000000000000000000000000000040000000000000000000000000200000000000020800000000000000000800000000000000000000000000000200000000000000000000000000000000800000000000000000000000000001000000000000000080000400400000000000000000000000000000000002000000000000000000000000400001000000000000000000000000000000000000000020000040000000000000000000000000000000000000000000000000000000000000",
      "type": "0x2",
      "transactionHash": "0xbac7c2371bc98a8080ef0c96ff4819a49c1095adfe1f2e5df121c9d18906c178",
      "transactionIndex": "0x6",
      "blockHash": "0x9954420dd0364d4143b8f4aede51c347137350301cad58f2a352f1ddc4fad5fc",
      "blockNumber": "0x19f73d03",
      "gasUsed": "0x161be",
      "effectiveGasPrice": "0x1315410",
      "from": "0x42bb5957f541e150329cf8ff7a52002f746419c4",
      "to": "0x0000000071727de22e5e9d8baf0edac6f37da032",
      "contractAddress": null,
      "gasUsedForL1": "0x98",
      "l1BlockNumber": "0x1764c9e",
      "timeboosted": false
    }
  ],
  "libraries": [],
  "pending": [],
  "returns": {},
  "timestamp": 1771976118678,
  "chain": 42161,
  "commit": "41f1c90"
}