{
  "transactions": [
    {
      "hash": "0x7dee62b3af7e231b481b7a6f842d18d9ed8a54e0d6e6b02637b49a32a4b50f09",
      "transactionType": "CALL",
      "contractName": null,
      "contractAddress": "0x0000000071727de22e5e9d8baf0edac6f37da032",
      "function": "handleOps((address,uint256,bytes,bytes,bytes32,uint256,bytes32,bytes,bytes)[],address)",
      "arguments": [
        "[(0x6bF86f3717c0D04D6AC3B3c01f20167179706a3b, 0, 0x, 0xb61d27f600000000000000000000000002e2eedf19a3d98d4677c84ac5bd1bdff51b700700000000000000000000000000000000000000000000000000030e2a5a81c00000000000000000000000000000000000000000000000000000000000000000600000000000000000000000000000000000000000000000000000000000000000, 0x0000000000000000000000000100000000000000000000000000000001000000, 16777216, 0x0000000000000000000000000000010000000000000000000000000000000100, 0x, 0x70ec548765242e09803966579737b7336176a289ba18390c7fba58812aaaef6815808f5e119f629daf28d9c38668664ba98fa26fcd8d4ef766bf94441950f9011b)]",
        "0x42BB5957F541e150329cF8ff7A52002f746419C4"
      ],
      "transaction": {
        "from": "0x42bb5957f541e150329cf8ff7a52002f746419c4",
        "to": "0x0000000071727de22e5e9d8baf0edac6f37da032",
        "gas": "0x15b3563",
        "value": "0x0",
        "input": "0x765e827f000000000000000000000000000000000000000000000000000000000000004000000000000000000000000042bb5957f541e150329cf8ff7a52002f746419c4000000000000000000000000000000000000000000000000000000000000000100000000000000000000000000000000000000000000000000000000000000200000000000000000000000006bf86f3717c0d04d6ac3b3c01f20167179706a3b0000000000000000000000000000000000000000000000000000000000000000000000000000000000000000000000000000000000000000000000000000012000000000000000000000000000000000000000000000000000000000000001400000000000000000000000000100000000000000000000000000000001000000000000000000000000000000000000000000000000000000000000000100000000000000000000000000000000000100000000000000000000000000000001000000000000000000000000000000000000000000000000000000000000000200000000000000000000000000000000000000000000000000000000000000022000000000000000000000000000000000000000000000000000000000000000000000000000000000000000000000000000000000000000000000000000000084b61d27f600000000000000000000000002e2eedf19a3d98d4677c84ac5bd1bdff51b700700000000000000000000000000000000000000000000000000030e2a5a81c00000000000000000000000000000000000000000000000000000000000000000600000000000000000000000000000000000000000000000000000000000000000000000000000000000000000000000000000000000000000000000000000000000000000000000000000000000000000000000000000000000000000000000000000000000000000000000000000000000000000000000000000004170ec548765242e09803966579737b7336176a289ba18390c7fba58812aaaef6815808f5e119f629daf28d9c38668664ba98fa26fcd8d4ef766bf94441950f9011b00000000000000000000000000000000000000000000000000000000000000",
        "nonce": "0x4",
        "chainId": "0xa4b1"
      },
      "additionalContracts": [],
      "isFixedGasLimit": false
    }
  ],
  "receipts": [
    {
      "status": "0x1",
      "cumulativeGasUsed": "0x5849d",
      "logs": [
        {
          "address": "0x0000000071727de22e5e9d8baf0edac6f37da032",
          "topics": [
            "0x2da466a7b24304f47e87fa2e1e5a81b9831ce54fec19055ce277ca2f39ba42c4",
            "0x0000000000000000000000006bf86f3717c0d04d6ac3b3c01f20167179706a3b"
          ],
          "data": "0x0000000000000000000000000000000000000000000000000000000300000000",
          "blockHash": "0x7a9146b28c66cab7001d9fcf50cb55df764e5ad15da7b41025c8dab3fe1a3280",
          "blockNumber": "0x19f71df0",
          "blockTimestamp": "0x699e2df3",
          "transactionHash": "0x7dee62b3af7e231b481b7a6f842d18d9ed8a54e0d6e6b02637b49a32a4b50f09",
          "transactionIndex": "0x4",
          "logIndex": "0x3",
          "removed": false
        },
        {
          "address": "0x0000000071727de22e5e9d8baf0edac6f37da032",
          "topics": [
            "0xbb47ee3e183a558b1a2ff0874b079f3fc5478b7454eacf2bfc5af2ff5878f972"
          ],
          "data": "0x",
          "blockHash": "0x7a9146b28c66cab7001d9fcf50cb55df764e5ad15da7b41025c8dab3fe1a3280",
          "blockNumber": "0x19f71df0",
          "blockTimestamp": "0x699e2df3",
          "transactionHash": "0x7dee62b3af7e231b481b7a6f842d18d9ed8a54e0d6e6b02637b49a32a4b50f09",
          "transactionIndex": "0x4",
          "logIndex": "0x4",
          "removed": false
        },
        {
          "address": "0x0000000071727de22e5e9d8baf0edac6f37da032",
          "topics": [
            "0x1c4fada7374c0a9ee8841fc38afe82932dc0f8e69012e927f061a8bae611a201",
            "0x52ebc3b75755add4efa72fd897fa01b4239c82d5cbc4fc76c0192132285e670d",
            "0x0000000000000000000000006bf86f3717c0d04d6ac3b3c01f20167179706a3b"
          ],
          "data": "0x00000000000000000000000000000000000000000000000000000000000000000000000000000000000000000000000000000000000000000000000000000040000000000000000000000000000000000000000000000000000000000000004438fe21500000000000000000000000000000000000000000000000000000000000000020000000000000000000000000000000000000000000000000000000000000000000000000000000000000000000000000000000000000000000000000",
          "blockHash": "0x7a9146b28c66cab7001d9fcf50cb55df764e5ad15da7b41025c8dab3fe1a3280",
          "blockNumber": "0x19f71df0",
          "blockTimestamp": "0x699e2df3",
          "transactionHash": "0x7dee62b3af7e231b481b7a6f842d18d9ed8a54e0d6e6b02637b49a32a4b50f09",
          "transactionIndex": "0x4",
          "logIndex": "0x5",
          "removed": false
        },
        {
          "address": "0x0000000071727de22e5e9d8baf0edac6f37da032",
          "topics": [
            "0x49628fd1471006c1482da88028e9ce4dbb080b815c9b0344d39e5a8e6ec1419f",
            "0x52ebc3b75755add4efa72fd897fa01b4239c82d5cbc4fc76c0192132285e670d",
            "0x0000000000000000000000006bf86f3717c0d04d6ac3b3c01f20167179706a3b",
            "0x0000000000000000000000000000000000000000000000000000000000000000"
          ],
          "data": "0x00000000000000000000000000000000000000000000000000000000000000000000000000000000000000000000000000000000000000000000000000000000000000000000000000000000000000000000000000000000000000011adaa10000000000000000000000000000000000000000000000000000000000011adaa1",
          "blockHash": "0x7a9146b28c66cab7001d9fcf50cb55df764e5ad15da7b41025c8dab3fe1a3280",
          "blockNumber": "0x19f71df0",
          "blockTimestamp": "0x699e2df3",
          "transactionHash": "0x7dee62b3af7e231b481b7a6f842d18d9ed8a54e0d6e6b02637b49a32a4b50f09",
          "transactionIndex": "0x4",
          "logIndex": "0x6",
          "removed": false
        }
      ],
      "logsBloom": "0x000000000000000400000000000000000000000000000000000000000000000000080000200000000000000100000000000000000000000000000200000000000000000000000000000000000000000000400000000000000000000000402000000000000a0800000000000000000800000000000000000000000000000200000000000000000000000000000000800000000000000000000000000000008000000000000080000000400000000002000000000000000000000002000000000000000000000000400001000000000000000000000000000000000000000020000040000001000000000000000000000000000000000000000000000000000000",
      "type": "0x2",
      "transactionHash": "0x7dee62b3af7e231b481b7a6f842d18d9ed8a54e0d6e6b02637b49a32a4b50f09",
      "transactionIndex": "0x4",
      "blockHash": "0x7a9146b28c66cab7001d9fcf50cb55df764e5ad15da7b41025c8dab3fe1a3280",
      "blockNumber": "0x19f71df0",
      "gasUsed": "0x1f737",
      "effectiveGasPrice": "0x1312d00",
      "from": "0x42bb5957f541e150329cf8ff7a52002f746419c4",
      "to": "0x0000000071727de22e5e9d8baf0edac6f37da032",
      "contractAddress": null,
      "gasUsedForL1": "0x74",
      "l1BlockNumber": "0x1764bfc",
      "timeboosted": false
    }
  ],
  "libraries": [],
  "pending": [],
  "returns": {},
  "timestamp": 1771974131683,
  "chain": 42161,
  "commit": "41f1c90"
}